{
  "_format": "hh-sol-artifact-1",
  "contractName": "Project",
  "sourceName": "contracts/Project.sol",
  "abi": [
    {
      "inputs": [
        {
          "internalType": "address",
          "name": "_creator",
          "type": "address"
        },
        {
          "internalType": "string",
          "name": "_username",
          "type": "string"
        },
        {
          "internalType": "uint256",
          "name": "_minimumContribution",
          "type": "uint256"
        },
        {
          "internalType": "uint256",
          "name": "_deadline",
          "type": "uint256"
        },
        {
          "internalType": "uint256",
          "name": "_targetContribution",
          "type": "uint256"
        },
        {
          "internalType": "string",
          "name": "_projectTitle",
          "type": "string"
        },
        {
          "internalType": "string",
          "name": "_projectDes",
          "type": "string"
        },
        {
          "internalType": "string",
          "name": "_ipfsImageHash",
          "type": "string"
        }
      ],
      "stateMutability": "nonpayable",
      "type": "constructor"
    },
    {
      "anonymous": false,
      "inputs": [
        {
          "indexed": false,
          "internalType": "uint256",
          "name": "requestId",
          "type": "uint256"
        },
        {
          "indexed": false,
          "internalType": "string",
          "name": "description",
          "type": "string"
        },
        {
          "indexed": false,
          "internalType": "uint256",
          "name": "amount",
          "type": "uint256"
        },
        {
          "indexed": false,
          "internalType": "uint256",
          "name": "noOfVotes",
          "type": "uint256"
        },
        {
          "indexed": false,
          "internalType": "bool",
          "name": "isCompleted",
          "type": "bool"
        },
        {
          "indexed": false,
          "internalType": "address",
          "name": "reciptent",
          "type": "address"
        }
      ],
      "name": "AmountWithdrawSuccessful",
      "type": "event"
    },
    {
      "anonymous": false,
      "inputs": [
        {
          "indexed": false,
          "internalType": "address",
          "name": "contributor",
          "type": "address"
        },
        {
          "indexed": false,
          "internalType": "uint256",
          "name": "amount",
          "type": "uint256"
        },
        {
          "indexed": false,
          "internalType": "uint256",
          "name": "currentTotal",
          "type": "uint256"
        }
      ],
      "name": "FundingReceived",
      "type": "event"
    },
    {
      "anonymous": false,
      "inputs": [
        {
          "indexed": false,
          "internalType": "uint256",
          "name": "requestId",
          "type": "uint256"
        },
        {
          "indexed": false,
          "internalType": "string",
          "name": "description",
          "type": "string"
        },
        {
          "indexed": false,
          "internalType": "uint256",
          "name": "amount",
          "type": "uint256"
        },
        {
          "indexed": false,
          "internalType": "uint256",
          "name": "noOfVotes",
          "type": "uint256"
        },
        {
          "indexed": false,
          "internalType": "bool",
          "name": "isCompleted",
          "type": "bool"
        },
        {
          "indexed": false,
          "internalType": "address",
          "name": "reciptent",
          "type": "address"
        }
      ],
      "name": "WithdrawRequestCreated",
      "type": "event"
    },
    {
      "anonymous": false,
      "inputs": [
        {
          "indexed": false,
          "internalType": "address",
          "name": "voter",
          "type": "address"
        },
        {
          "indexed": false,
          "internalType": "uint256",
          "name": "totalVote",
          "type": "uint256"
        }
      ],
      "name": "WithdrawVote",
      "type": "event"
    },
    {
      "inputs": [
        {
          "internalType": "uint256",
          "name": "",
          "type": "uint256"
        }
      ],
      "name": "allContributors",
      "outputs": [
        {
          "internalType": "address",
          "name": "",
          "type": "address"
        }
      ],
      "stateMutability": "view",
      "type": "function"
    },
    {
      "inputs": [],
      "name": "contribute",
      "outputs": [],
      "stateMutability": "payable",
      "type": "function"
    },
    {
      "inputs": [
        {
          "internalType": "address",
          "name": "",
          "type": "address"
        }
      ],
      "name": "contributors",
      "outputs": [
        {
          "internalType": "uint256",
          "name": "",
          "type": "uint256"
        }
      ],
      "stateMutability": "view",
      "type": "function"
    },
    {
      "inputs": [
        {
          "internalType": "string",
          "name": "_description",
          "type": "string"
        },
        {
          "internalType": "uint256",
          "name": "_amount",
          "type": "uint256"
        },
        {
          "internalType": "address payable",
          "name": "_reciptent",
          "type": "address"
        }
      ],
      "name": "createWithdrawRequest",
      "outputs": [],
      "stateMutability": "nonpayable",
      "type": "function"
    },
    {
      "inputs": [],
      "name": "creator",
      "outputs": [
        {
          "internalType": "address payable",
          "name": "",
          "type": "address"
        }
      ],
      "stateMutability": "view",
      "type": "function"
    },
    {
      "inputs": [],
      "name": "deadline",
      "outputs": [
        {
          "internalType": "uint256",
          "name": "",
          "type": "uint256"
        }
      ],
      "stateMutability": "view",
      "type": "function"
    },
    {
      "inputs": [],
      "name": "getContractBalance",
      "outputs": [
        {
          "internalType": "uint256",
          "name": "",
          "type": "uint256"
        }
      ],
      "stateMutability": "view",
      "type": "function"
    },
    {
      "inputs": [
        {
          "internalType": "address",
          "name": "contributor",
          "type": "address"
        }
      ],
      "name": "getContributor",
      "outputs": [
        {
          "internalType": "uint256",
          "name": "",
          "type": "uint256"
        }
      ],
      "stateMutability": "view",
      "type": "function"
    },
    {
      "inputs": [],
      "name": "getContributors",
      "outputs": [
        {
          "internalType": "address[]",
          "name": "",
          "type": "address[]"
        }
      ],
      "stateMutability": "view",
      "type": "function"
    },
    {
      "inputs": [],
      "name": "ipfsImageHash",
      "outputs": [
        {
          "internalType": "string",
          "name": "",
          "type": "string"
        }
      ],
      "stateMutability": "view",
      "type": "function"
    },
    {
      "inputs": [],
      "name": "minimumContribution",
      "outputs": [
        {
          "internalType": "uint256",
          "name": "",
          "type": "uint256"
        }
      ],
      "stateMutability": "view",
      "type": "function"
    },
    {
      "inputs": [],
      "name": "noOfContributers",
      "outputs": [
        {
          "internalType": "uint256",
          "name": "",
          "type": "uint256"
        }
      ],
      "stateMutability": "view",
      "type": "function"
    },
    {
      "inputs": [],
      "name": "numOfWithdrawRequests",
      "outputs": [
        {
          "internalType": "uint256",
          "name": "",
          "type": "uint256"
        }
      ],
      "stateMutability": "view",
      "type": "function"
    },
    {
      "inputs": [],
      "name": "projectDes",
      "outputs": [
        {
          "internalType": "string",
          "name": "",
          "type": "string"
        }
      ],
      "stateMutability": "view",
      "type": "function"
    },
    {
      "inputs": [],
      "name": "projectTitle",
      "outputs": [
        {
          "internalType": "string",
          "name": "",
          "type": "string"
        }
      ],
      "stateMutability": "view",
      "type": "function"
    },
    {
      "inputs": [],
      "name": "raisedAmount",
      "outputs": [
        {
          "internalType": "uint256",
          "name": "",
          "type": "uint256"
        }
      ],
      "stateMutability": "view",
      "type": "function"
    },
    {
      "inputs": [],
      "name": "requestRefund",
      "outputs": [],
      "stateMutability": "nonpayable",
      "type": "function"
    },
    {
      "inputs": [],
      "name": "state",
      "outputs": [
        {
          "internalType": "enum Project.ProjectState",
          "name": "",
          "type": "uint8"
        }
      ],
      "stateMutability": "view",
      "type": "function"
    },
    {
      "inputs": [],
      "name": "targetContribution",
      "outputs": [
        {
          "internalType": "uint256",
          "name": "",
          "type": "uint256"
        }
      ],
      "stateMutability": "view",
      "type": "function"
    },
    {
      "inputs": [],
      "name": "username",
      "outputs": [
        {
          "internalType": "string",
          "name": "",
          "type": "string"
        }
      ],
      "stateMutability": "view",
      "type": "function"
    },
    {
      "inputs": [
        {
          "internalType": "uint256",
          "name": "_requestId",
          "type": "uint256"
        }
      ],
      "name": "voteWithdrawRequest",
      "outputs": [],
      "stateMutability": "nonpayable",
      "type": "function"
    },
    {
      "inputs": [
        {
          "internalType": "uint256",
          "name": "_requestId",
          "type": "uint256"
        }
      ],
      "name": "withdrawRequestedAmount",
      "outputs": [],
      "stateMutability": "nonpayable",
      "type": "function"
    },
    {
      "inputs": [
        {
          "internalType": "uint256",
          "name": "",
          "type": "uint256"
        }
      ],
      "name": "withdrawRequests",
      "outputs": [
        {
          "internalType": "string",
          "name": "description",
          "type": "string"
        },
        {
          "internalType": "uint256",
          "name": "amount",
          "type": "uint256"
        },
        {
          "internalType": "uint256",
          "name": "noOfVotes",
          "type": "uint256"
        },
        {
          "internalType": "bool",
          "name": "isCompleted",
          "type": "bool"
        },
        {
          "internalType": "address payable",
          "name": "reciptent",
          "type": "address"
        }
      ],
      "stateMutability": "view",
      "type": "function"
    }
  ],
  "bytecode": "0x60806040526000600c60006101000a81548160ff021916908360028111156200002d576200002c6200013f565b5b02179055503480156200003f57600080fd5b5060405162003041380380620030418339818101604052810190620000659190620003a1565b87600160006101000a81548173ffffffffffffffffffffffffffffffffffffffff021916908373ffffffffffffffffffffffffffffffffffffffff1602179055508660029081620000b7919062000727565b508560038190555084600481905550836005819055508260089081620000de919062000727565b508160099081620000f0919062000727565b5080600a908162000102919062000727565b506000600c60006101000a81548160ff021916908360028111156200012c576200012b6200013f565b5b021790555050505050505050506200080e565b7f4e487b7100000000000000000000000000000000000000000000000000000000600052602160045260246000fd5b6000604051905090565b600080fd5b600080fd5b600073ffffffffffffffffffffffffffffffffffffffff82169050919050565b6000620001af8262000182565b9050919050565b620001c181620001a2565b8114620001cd57600080fd5b50565b600081519050620001e181620001b6565b92915050565b600080fd5b600080fd5b6000601f19601f8301169050919050565b7f4e487b7100000000000000000000000000000000000000000000000000000000600052604160045260246000fd5b6200023c82620001f1565b810181811067ffffffffffffffff821117156200025e576200025d62000202565b5b80604052505050565b6000620002736200016e565b905062000281828262000231565b919050565b600067ffffffffffffffff821115620002a457620002a362000202565b5b620002af82620001f1565b9050602081019050919050565b60005b83811015620002dc578082015181840152602081019050620002bf565b60008484015250505050565b6000620002ff620002f98462000286565b62000267565b9050828152602081018484840111156200031e576200031d620001ec565b5b6200032b848285620002bc565b509392505050565b600082601f8301126200034b576200034a620001e7565b5b81516200035d848260208601620002e8565b91505092915050565b6000819050919050565b6200037b8162000366565b81146200038757600080fd5b50565b6000815190506200039b8162000370565b92915050565b600080600080600080600080610100898b031215620003c557620003c462000178565b5b6000620003d58b828c01620001d0565b985050602089015167ffffffffffffffff811115620003f957620003f86200017d565b5b620004078b828c0162000333565b97505060406200041a8b828c016200038a565b96505060606200042d8b828c016200038a565b9550506080620004408b828c016200038a565b94505060a089015167ffffffffffffffff8111156200046457620004636200017d565b5b620004728b828c0162000333565b93505060c089015167ffffffffffffffff8111156200049657620004956200017d565b5b620004a48b828c0162000333565b92505060e089015167ffffffffffffffff811115620004c857620004c76200017d565b5b620004d68b828c0162000333565b9150509295985092959890939650565b600081519050919050565b7f4e487b7100000000000000000000000000000000000000000000000000000000600052602260045260246000fd5b600060028204905060018216806200053957607f821691505b6020821081036200054f576200054e620004f1565b5b50919050565b60008190508160005260206000209050919050565b60006020601f8301049050919050565b600082821b905092915050565b600060088302620005b97fffffffffffffffffffffffffffffffffffffffffffffffffffffffffffffffff826200057a565b620005c586836200057a565b95508019841693508086168417925050509392505050565b6000819050919050565b60006200060862000602620005fc8462000366565b620005dd565b62000366565b9050919050565b6000819050919050565b6200062483620005e7565b6200063c62000633826200060f565b84845462000587565b825550505050565b600090565b6200065362000644565b6200066081848462000619565b505050565b5b8181101562000688576200067c60008262000649565b60018101905062000666565b5050565b601f821115620006d757620006a18162000555565b620006ac846200056a565b81016020851015620006bc578190505b620006d4620006cb856200056a565b83018262000665565b50505b505050565b600082821c905092915050565b6000620006fc60001984600802620006dc565b1980831691505092915050565b6000620007178383620006e9565b9150826002028217905092915050565b6200073282620004e6565b67ffffffffffffffff8111156200074e576200074d62000202565b5b6200075a825462000520565b620007678282856200068c565b600060209050601f8311600181146200079f57600084156200078a578287015190505b62000796858262000709565b86555062000806565b601f198416620007af8662000555565b60005b82811015620007d957848901518255600182019150602085019450602081019050620007b2565b86831015620007f95784890151620007f5601f891682620006e9565b8355505b6001600288020188555050505b505050505050565b612823806200081e6000396000f3fe6080604052600436106101405760003560e01c8063937e09b1116100b6578063c19d93fb1161006f578063c19d93fb14610454578063c3e20c9f1461047f578063c59ee1dc146104aa578063d5cef133146104d5578063d7bb99ba146104ec578063e07439f7146104f657610140565b8063937e09b11461033e578063992a7dfb14610369578063a46752ae146103aa578063af157c19146103d3578063b40141bf146103fe578063b82c86d61461042957610140565b80632b6bd172116101085780632b6bd1721461022e5780633d8270f5146102595780634e695a371461029657806361fac54d146102bf5780636f9fb98a146102ea578063752e19f91461031557610140565b806302d05d3f1461014557806303c29d58146101705780631f6d49421461019b57806324274ee9146101d857806329dcb0cf14610203575b600080fd5b34801561015157600080fd5b5061015a610533565b60405161016791906116f6565b60405180910390f35b34801561017c57600080fd5b50610185610559565b60405161019291906117a1565b60405180910390f35b3480156101a757600080fd5b506101c260048036038101906101bd9190611815565b6105e7565b6040516101cf919061185b565b60405180910390f35b3480156101e457600080fd5b506101ed6105ff565b6040516101fa919061185b565b60405180910390f35b34801561020f57600080fd5b50610218610605565b604051610225919061185b565b60405180910390f35b34801561023a57600080fd5b5061024361060b565b60405161025091906117a1565b60405180910390f35b34801561026557600080fd5b50610280600480360381019061027b9190611815565b610699565b60405161028d919061185b565b60405180910390f35b3480156102a257600080fd5b506102bd60048036038101906102b891906118a2565b6106e2565b005b3480156102cb57600080fd5b506102d46108c7565b6040516102e191906117a1565b60405180910390f35b3480156102f657600080fd5b506102ff610955565b60405161030c919061185b565b60405180910390f35b34801561032157600080fd5b5061033c600480360381019061033791906118a2565b61095d565b005b34801561034a57600080fd5b50610353610cd4565b604051610360919061185b565b60405180910390f35b34801561037557600080fd5b50610390600480360381019061038b91906118a2565b610cda565b6040516103a19594939291906118ea565b60405180910390f35b3480156103b657600080fd5b506103d160048036038101906103cc9190611aa5565b610dc5565b005b3480156103df57600080fd5b506103e8610fd0565b6040516103f59190611bd2565b60405180910390f35b34801561040a57600080fd5b5061041361105e565b604051610420919061185b565b60405180910390f35b34801561043557600080fd5b5061043e611064565b60405161044b919061185b565b60405180910390f35b34801561046057600080fd5b5061046961106a565b6040516104769190611c6b565b60405180910390f35b34801561048b57600080fd5b5061049461107d565b6040516104a191906117a1565b60405180910390f35b3480156104b657600080fd5b506104bf61110b565b6040516104cc919061185b565b60405180910390f35b3480156104e157600080fd5b506104ea611111565b005b6104f4611388565b005b34801561050257600080fd5b5061051d600480360381019061051891906118a2565b611602565b60405161052a9190611c95565b60405180910390f35b600160009054906101000a900473ffffffffffffffffffffffffffffffffffffffff1681565b6009805461056690611cdf565b80601f016020809104026020016040519081016040528092919081815260200182805461059290611cdf565b80156105df5780601f106105b4576101008083540402835291602001916105df565b820191906000526020600020905b8154815290600101906020018083116105c257829003601f168201915b505050505081565b600d6020528060005260406000206000915090505481565b60075481565b60045481565b600a805461061890611cdf565b80601f016020809104026020016040519081016040528092919081815260200182805461064490611cdf565b80156106915780601f1061066657610100808354040283529160200191610691565b820191906000526020600020905b81548152906001019060200180831161067457829003601f168201915b505050505081565b6000600d60008373ffffffffffffffffffffffffffffffffffffffff1673ffffffffffffffffffffffffffffffffffffffff168152602001908152602001600020549050919050565b6000600d60003373ffffffffffffffffffffffffffffffffffffffff1673ffffffffffffffffffffffffffffffffffffffff1681526020019081526020016000205411610764576040517f08c379a000000000000000000000000000000000000000000000000000000000815260040161075b90611d5c565b60405180910390fd5b6000600e60008381526020019081526020016000209050600015158160030160003373ffffffffffffffffffffffffffffffffffffffff1673ffffffffffffffffffffffffffffffffffffffff16815260200190815260200160002060009054906101000a900460ff16151514610810576040517f08c379a000000000000000000000000000000000000000000000000000000000815260040161080790611dc8565b60405180910390fd5b60018160030160003373ffffffffffffffffffffffffffffffffffffffff1673ffffffffffffffffffffffffffffffffffffffff16815260200190815260200160002060006101000a81548160ff021916908315150217905550600181600201600082825461087f9190611e17565b925050819055507fa2925e4595bf873fa82c22a1a89809777347023bf2b502d32710157a5eb8199c3382600201546040516108bb929190611e4b565b60405180910390a15050565b600280546108d490611cdf565b80601f016020809104026020016040519081016040528092919081815260200182805461090090611cdf565b801561094d5780601f106109225761010080835404028352916020019161094d565b820191906000526020600020905b81548152906001019060200180831161093057829003601f168201915b505050505081565b600047905090565b600160009054906101000a900473ffffffffffffffffffffffffffffffffffffffff1673ffffffffffffffffffffffffffffffffffffffff163373ffffffffffffffffffffffffffffffffffffffff16146109ed576040517f08c379a00000000000000000000000000000000000000000000000000000000081526004016109e490611ee6565b60405180910390fd5b6002806002811115610a0257610a01611bf4565b5b600c60009054906101000a900460ff166002811115610a2457610a23611bf4565b5b14610a64576040517f08c379a0000000000000000000000000000000000000000000000000000000008152600401610a5b90611f52565b60405180910390fd5b6004544210610aa8576040517f08c379a0000000000000000000000000000000000000000000000000000000008152600401610a9f90611fbe565b60405180910390fd5b6000600e60008481526020019081526020016000209050600015158160040160009054906101000a900460ff16151514610b17576040517f08c379a0000000000000000000000000000000000000000000000000000000008152600401610b0e9061202a565b60405180910390fd5b6002600754610b269190612079565b81600201541015610b6c576040517f08c379a0000000000000000000000000000000000000000000000000000000008152600401610b63906120f6565b60405180910390fd5b60008160040160019054906101000a900473ffffffffffffffffffffffffffffffffffffffff1673ffffffffffffffffffffffffffffffffffffffff168260010154604051610bba90612147565b60006040518083038185875af1925050503d8060008114610bf7576040519150601f19603f3d011682016040523d82523d6000602084013e610bfc565b606091505b5050905080610c40576040517f08c379a0000000000000000000000000000000000000000000000000000000008152600401610c37906121a8565b60405180910390fd5b60018260040160006101000a81548160ff0219169083151502179055507f2af8d60b878c5e8de57c8ff96e03c6cfab6de26b47e989757345cc1dceaac99884836000018460010154856002015460018760040160019054906101000a900473ffffffffffffffffffffffffffffffffffffffff16604051610cc6969594939291906122c0565b60405180910390a150505050565b60035481565b600e602052806000526040600020600091509050806000018054610cfd90611cdf565b80601f0160208091040260200160405190810160405280929190818152602001828054610d2990611cdf565b8015610d765780601f10610d4b57610100808354040283529160200191610d76565b820191906000526020600020905b815481529060010190602001808311610d5957829003601f168201915b5050505050908060010154908060020154908060040160009054906101000a900460ff16908060040160019054906101000a900473ffffffffffffffffffffffffffffffffffffffff16905085565b600160009054906101000a900473ffffffffffffffffffffffffffffffffffffffff1673ffffffffffffffffffffffffffffffffffffffff163373ffffffffffffffffffffffffffffffffffffffff1614610e55576040517f08c379a0000000000000000000000000000000000000000000000000000000008152600401610e4c90611ee6565b60405180910390fd5b600280811115610e6857610e67611bf4565b5b600c60009054906101000a900460ff166002811115610e8a57610e89611bf4565b5b1480610ec9575060016002811115610ea557610ea4611bf4565b5b600c60009054906101000a900460ff166002811115610ec757610ec6611bf4565b5b145b610ed257600080fd5b6000600e6000805481526020019081526020016000209050600080815480929190610efc90612328565b919050555083816000019081610f1291906124fd565b508281600101819055506000816002018190555060008160040160006101000a81548160ff021916908315150217905550818160040160016101000a81548173ffffffffffffffffffffffffffffffffffffffff021916908373ffffffffffffffffffffffffffffffffffffffff1602179055507f9883a4e4f8698e4cc93bafb8d0d2376cb8c51dd322cb9fd80d02c691fcdea503600054858560008087604051610fc29695949392919061260a565b60405180910390a150505050565b6060600b80548060200260200160405190810160405280929190818152602001828054801561105457602002820191906000526020600020905b8160009054906101000a900473ffffffffffffffffffffffffffffffffffffffff1673ffffffffffffffffffffffffffffffffffffffff168152602001906001019080831161100a575b5050505050905090565b60005481565b60055481565b600c60009054906101000a900460ff1681565b6008805461108a90611cdf565b80601f01602080910402602001604051908101604052809291908181526020018280546110b690611cdf565b80156111035780601f106110d857610100808354040283529160200191611103565b820191906000526020600020905b8154815290600101906020018083116110e657829003601f168201915b505050505081565b60065481565b600180600281111561112657611125611bf4565b5b600c60009054906101000a900460ff16600281111561114857611147611bf4565b5b14611188576040517f08c379a000000000000000000000000000000000000000000000000000000000815260040161117f90611f52565b60405180910390fd5b60045442106111cc576040517f08c379a00000000000000000000000000000000000000000000000000000000081526004016111c390611fbe565b60405180910390fd5b6000600d60003373ffffffffffffffffffffffffffffffffffffffff1673ffffffffffffffffffffffffffffffffffffffff168152602001908152602001600020541161124e576040517f08c379a0000000000000000000000000000000000000000000000000000000008152600401611245906126be565b60405180910390fd5b600033905060008173ffffffffffffffffffffffffffffffffffffffff16600d60003373ffffffffffffffffffffffffffffffffffffffff1673ffffffffffffffffffffffffffffffffffffffff168152602001908152602001600020546040516112b890612147565b60006040518083038185875af1925050503d80600081146112f5576040519150601f19603f3d011682016040523d82523d6000602084013e6112fa565b606091505b505090508061133e576040517f08c379a00000000000000000000000000000000000000000000000000000000081526004016113359061272a565b60405180910390fd5b6000600d60003373ffffffffffffffffffffffffffffffffffffffff1673ffffffffffffffffffffffffffffffffffffffff16815260200190815260200160002081905550505050565b600080600281111561139d5761139c611bf4565b5b600c60009054906101000a900460ff1660028111156113bf576113be611bf4565b5b146113ff576040517f08c379a00000000000000000000000000000000000000000000000000000000081526004016113f690611f52565b60405180910390fd5b6004544210611443576040517f08c379a000000000000000000000000000000000000000000000000000000000815260040161143a90611fbe565b60405180910390fd5b600354341015611488576040517f08c379a000000000000000000000000000000000000000000000000000000000815260040161147f90612796565b60405180910390fd5b6000600d60003373ffffffffffffffffffffffffffffffffffffffff1673ffffffffffffffffffffffffffffffffffffffff168152602001908152602001600020540361154b57600760008154809291906114e290612328565b9190505550600b339080600181540180825580915050600190039060005260206000200160009091909190916101000a81548173ffffffffffffffffffffffffffffffffffffffff021916908373ffffffffffffffffffffffffffffffffffffffff1602179055505b34600d60003373ffffffffffffffffffffffffffffffffffffffff1673ffffffffffffffffffffffffffffffffffffffff168152602001908152602001600020600082825461159a9190611e17565b9250508190555034600660008282546115b39190611e17565b925050819055507f5cdc4ab8d637538ead6cc1904d4160343656c8c82bd266635cfd31ac008fffe033346006546040516115ef939291906127b6565b60405180910390a16115ff611641565b50565b600b818154811061161257600080fd5b906000526020600020016000915054906101000a900473ffffffffffffffffffffffffffffffffffffffff1681565b6005546006541061167c576002600c60006101000a81548160ff0219169083600281111561167257611671611bf4565b5b02179055506116b3565b6004544211156116b2576001600c60006101000a81548160ff021916908360028111156116ac576116ab611bf4565b5b02179055505b5b565b600073ffffffffffffffffffffffffffffffffffffffff82169050919050565b60006116e0826116b5565b9050919050565b6116f0816116d5565b82525050565b600060208201905061170b60008301846116e7565b92915050565b600081519050919050565b600082825260208201905092915050565b60005b8381101561174b578082015181840152602081019050611730565b60008484015250505050565b6000601f19601f8301169050919050565b600061177382611711565b61177d818561171c565b935061178d81856020860161172d565b61179681611757565b840191505092915050565b600060208201905081810360008301526117bb8184611768565b905092915050565b6000604051905090565b600080fd5b600080fd5b60006117e2826116b5565b9050919050565b6117f2816117d7565b81146117fd57600080fd5b50565b60008135905061180f816117e9565b92915050565b60006020828403121561182b5761182a6117cd565b5b600061183984828501611800565b91505092915050565b6000819050919050565b61185581611842565b82525050565b6000602082019050611870600083018461184c565b92915050565b61187f81611842565b811461188a57600080fd5b50565b60008135905061189c81611876565b92915050565b6000602082840312156118b8576118b76117cd565b5b60006118c68482850161188d565b91505092915050565b60008115159050919050565b6118e4816118cf565b82525050565b600060a08201905081810360008301526119048188611768565b9050611913602083018761184c565b611920604083018661184c565b61192d60608301856118db565b61193a60808301846116e7565b9695505050505050565b600080fd5b600080fd5b7f4e487b7100000000000000000000000000000000000000000000000000000000600052604160045260246000fd5b61198682611757565b810181811067ffffffffffffffff821117156119a5576119a461194e565b5b80604052505050565b60006119b86117c3565b90506119c4828261197d565b919050565b600067ffffffffffffffff8211156119e4576119e361194e565b5b6119ed82611757565b9050602081019050919050565b82818337600083830152505050565b6000611a1c611a17846119c9565b6119ae565b905082815260208101848484011115611a3857611a37611949565b5b611a438482856119fa565b509392505050565b600082601f830112611a6057611a5f611944565b5b8135611a70848260208601611a09565b91505092915050565b611a82816116d5565b8114611a8d57600080fd5b50565b600081359050611a9f81611a79565b92915050565b600080600060608486031215611abe57611abd6117cd565b5b600084013567ffffffffffffffff811115611adc57611adb6117d2565b5b611ae886828701611a4b565b9350506020611af98682870161188d565b9250506040611b0a86828701611a90565b9150509250925092565b600081519050919050565b600082825260208201905092915050565b6000819050602082019050919050565b611b49816117d7565b82525050565b6000611b5b8383611b40565b60208301905092915050565b6000602082019050919050565b6000611b7f82611b14565b611b898185611b1f565b9350611b9483611b30565b8060005b83811015611bc5578151611bac8882611b4f565b9750611bb783611b67565b925050600181019050611b98565b5085935050505092915050565b60006020820190508181036000830152611bec8184611b74565b905092915050565b7f4e487b7100000000000000000000000000000000000000000000000000000000600052602160045260246000fd5b60038110611c3457611c33611bf4565b5b50565b6000819050611c4582611c23565b919050565b6000611c5582611c37565b9050919050565b611c6581611c4a565b82525050565b6000602082019050611c806000830184611c5c565b92915050565b611c8f816117d7565b82525050565b6000602082019050611caa6000830184611c86565b92915050565b7f4e487b7100000000000000000000000000000000000000000000000000000000600052602260045260246000fd5b60006002820490506001821680611cf757607f821691505b602082108103611d0a57611d09611cb0565b5b50919050565b7f4552525f4d5553545f434f4e5452494255544500000000000000000000000000600082015250565b6000611d4660138361171c565b9150611d5182611d10565b602082019050919050565b60006020820190508181036000830152611d7581611d39565b9050919050565b7f4552525f414c52454144595f564f544544000000000000000000000000000000600082015250565b6000611db260118361171c565b9150611dbd82611d7c565b602082019050919050565b60006020820190508181036000830152611de181611da5565b9050919050565b7f4e487b7100000000000000000000000000000000000000000000000000000000600052601160045260246000fd5b6000611e2282611842565b9150611e2d83611842565b9250828201905080821115611e4557611e44611de8565b5b92915050565b6000604082019050611e606000830185611c86565b611e6d602083018461184c565b9392505050565b7f596f7520646f6e7420686176652061636365737320746f20706572666f726d2060008201527f74686973206f7065726174696f6e202100000000000000000000000000000000602082015250565b6000611ed060308361171c565b9150611edb82611e74565b604082019050919050565b60006020820190508181036000830152611eff81611ec3565b9050919050565b7f496e76616c696420737461746500000000000000000000000000000000000000600082015250565b6000611f3c600d8361171c565b9150611f4782611f06565b602082019050919050565b60006020820190508181036000830152611f6b81611f2f565b9050919050565b7f446561646c696e65206861732070617373656420210000000000000000000000600082015250565b6000611fa860158361171c565b9150611fb382611f72565b602082019050919050565b60006020820190508181036000830152611fd781611f9b565b9050919050565b7f524551554553545f434f4d504c45544544000000000000000000000000000000600082015250565b600061201460118361171c565b915061201f82611fde565b602082019050919050565b6000602082019050818103600083015261204381612007565b9050919050565b7f4e487b7100000000000000000000000000000000000000000000000000000000600052601260045260246000fd5b600061208482611842565b915061208f83611842565b92508261209f5761209e61204a565b5b828204905092915050565b7f4552525f4e4f545f454e4f5547485f564f544553000000000000000000000000600082015250565b60006120e060148361171c565b91506120eb826120aa565b602082019050919050565b6000602082019050818103600083015261210f816120d3565b9050919050565b600081905092915050565b50565b6000612131600083612116565b915061213c82612121565b600082019050919050565b600061215282612124565b9150819050919050565b7f4552525f54585f4641494c454400000000000000000000000000000000000000600082015250565b6000612192600d8361171c565b915061219d8261215c565b602082019050919050565b600060208201905081810360008301526121c181612185565b9050919050565b60008190508160005260206000209050919050565b600081546121ea81611cdf565b6121f4818661171c565b9450600182166000811461220f576001811461222557612258565b60ff198316865281151560200286019350612258565b61222e856121c8565b60005b8381101561225057815481890152600182019150602081019050612231565b808801955050505b50505092915050565b6000819050919050565b600061228661228161227c846116b5565b612261565b6116b5565b9050919050565b60006122988261226b565b9050919050565b60006122aa8261228d565b9050919050565b6122ba8161229f565b82525050565b600060c0820190506122d5600083018961184c565b81810360208301526122e781886121dd565b90506122f6604083018761184c565b612303606083018661184c565b61231060808301856118db565b61231d60a08301846122b1565b979650505050505050565b600061233382611842565b91507fffffffffffffffffffffffffffffffffffffffffffffffffffffffffffffffff820361236557612364611de8565b5b600182019050919050565b60006020601f8301049050919050565b600082821b905092915050565b6000600883026123bd7fffffffffffffffffffffffffffffffffffffffffffffffffffffffffffffffff82612380565b6123c78683612380565b95508019841693508086168417925050509392505050565b60006123fa6123f56123f084611842565b612261565b611842565b9050919050565b6000819050919050565b612414836123df565b61242861242082612401565b84845461238d565b825550505050565b600090565b61243d612430565b61244881848461240b565b505050565b5b8181101561246c57612461600082612435565b60018101905061244e565b5050565b601f8211156124b157612482816121c8565b61248b84612370565b8101602085101561249a578190505b6124ae6124a685612370565b83018261244d565b50505b505050565b600082821c905092915050565b60006124d4600019846008026124b6565b1980831691505092915050565b60006124ed83836124c3565b9150826002028217905092915050565b61250682611711565b67ffffffffffffffff81111561251f5761251e61194e565b5b6125298254611cdf565b612534828285612470565b600060209050601f8311600181146125675760008415612555578287015190505b61255f85826124e1565b8655506125c7565b601f198416612575866121c8565b60005b8281101561259d57848901518255600182019150602085019450602081019050612578565b868310156125ba57848901516125b6601f8916826124c3565b8355505b6001600288020188555050505b505050505050565b6000819050919050565b60006125f46125ef6125ea846125cf565b612261565b611842565b9050919050565b612604816125d9565b82525050565b600060c08201905061261f600083018961184c565b81810360208301526126318188611768565b9050612640604083018761184c565b61264d60608301866125fb565b61265a60808301856118db565b61266760a08301846122b1565b979650505050505050565b7f4552525f4e4f5448494e475f434f4e5452494255544544000000000000000000600082015250565b60006126a860178361171c565b91506126b382612672565b602082019050919050565b600060208201905081810360008301526126d78161269b565b9050919050565b7f4552525f54585f554e5355434345535346554c00000000000000000000000000600082015250565b600061271460138361171c565b915061271f826126de565b602082019050919050565b6000602082019050818103600083015261274381612707565b9050919050565b7f436f6e747269627574696f6e20616d6f756e7420697320746f6f206c6f772021600082015250565b600061278060208361171c565b915061278b8261274a565b602082019050919050565b600060208201905081810360008301526127af81612773565b9050919050565b60006060820190506127cb6000830186611c86565b6127d8602083018561184c565b6127e5604083018461184c565b94935050505056fea2646970667358221220054f50750117e927161d20da6d17bbd3fc0898933e40a7100bcb139e1572ffd064736f6c63430008130033",
  "linkReferences": {},
  "deployedLinkReferences": {}
}